:020000041000EA
:10100000500500201D100010000000009D10001071
:101010000018040000010000000000801149124A7D
:10102000124B00F018F8124880471249124A134B2D
:1010300000F011F81249134A134B00F00CF8134951
:10104000134A0020521A02DD043A8850FCDC114891
:101050008047114880479B1A03DD043BC858D05095
:10106000FBDC7047302200100C00002050010020F3
:10107000A11000107423001050050020B4050020BA
:10108000D8230010B4050020B4050020B4050020CA
:1010900000070020DD1F00102D1F0010FEE70000DC
:1010A00080B500AF00F036FE00F082FEBD4680BD88
:1010B00080B500AF2A4B1A68FF231B0213401A0A9F
:1010C000284B1A60274B1B68002B37D0244B1B681A
:1010D000FF221A40244B1A60214BDB690322134084
:1010E0001A02214B1B681A431F4B1A601C4BDA690A
:1010F00080239B0013400ED11A4B1B689A021A4B97
:101100001B68D3181948191C00F0A6FA031C1A0111
:10111000174B1A6021E000F02FF8031C9901114BC6
:101120001B689A02104B1B68D318081C191C00F08E
:1011300093FA031C1A010E4B1A600EE0084BDA6991
:1011400080239B00134003D1094B0A4A1A6004E034
:1011500000F012F8021C064B1A60BD4680BDC04666
:1011600000030140B4050020B805002000001BB7B3
:10117000FC3F0020006CDC0280B500AF014B181C66
:10118000BD4680BD002D310190B585B000AFF8603F
:101190007A600B23FB180A1C1A700B23FB181B78B0
:1011A0009B08DBB2181C0B23FB181B789B08DBB2D7
:1011B0001A1CFB6804329200D3580B22BA1812781A
:1011C00003210A40D200111CFC228A40D2431A405B
:1011D000111CFB68021D9200D150FB685B6F0B2253
:1011E000BA1812785200111C03228A40D2431A40C6
:1011F000FB685A670B23FB181B78DB08DBB2181C53
:101200000B23FB181B78DB08DBB21A1CFB681032BF
:101210009200D3580B22BA18127807210A40920084
:10122000111C04228A40D2431A40111CFB68021C84
:1012300010329200D1500B23FB181B78DB08DBB275
:10124000181C0B23FB181B78DB08DBB21A1CFB688D
:1012500010329200D2587B685B781C1C0B23FB1861
:101260001B7807210B409B009C40231C1A43111C38
:10127000FB68021C10329200D150FB68204A934256
:101280000BD1FB681B6E0B22BA181278012191401A
:101290000A1CD2431A40FB681A667B681B78DBB2D3
:1012A0005BB2002B07DA7B685A680B23FB181B78AC
:1012B0009A40FB685A600B23FB181B789B08DBB233
:1012C000181C0B23FB181B789B08DBB21A1CFB684D
:1012D00004329200D2587B681B781C1C0B23FB182D
:1012E0001B7803210B40DB009C40231C1A43111C7C
:1012F000FB68021D9200D150BD4605B090BDC046AE
:101300000002044080B500AF024BC3225A62BD46C2
:1013100080BDC0460000014080B500AF054BC02233
:101320005A62C046034B5B6A04221340FAD1BD46A1
:1013300080BDC0460000014080B586B000AF786037
:10134000FFF7EAFF7B689B79302B53D0FFF714FF40
:10135000021E494B9A4209D9484A48499023CB5A20
:101360009BB240210B4399B29023D152434A434947
:101370009023CB5A9BB29BB2191C322399430B1C6E
:1013800099B27B689B799BB20B439BB299B2902335
:10139000D1523B4B02229A623A4B3A4A52693A493D
:1013A0000A405A61394B7B6100E0C0467B69013BD2
:1013B0007B617B69002BF8D1324B324A5269C021E4
:1013C00089040A435A61C0462E4B5A6980235B0444
:1013D0001340F9D12E4B3B6100E0C0463B69013B15
:1013E0003B613B69002BF8D1254B1B6A022213405D
:1013F000CFD109E0214A21499023CB5A9BB2302119
:101400000B4399B29023D1521C4A7B68DB7999B285
:101410008C23D1527B68DB79002B09D11D4BFB60FB
:1014200000E0C046FB68013BFB60FB68002BF8D185
:10143000144B144AD26918490A40796889880A43CA
:10144000DA61104A0F4B1B68144919407B68DB684E
:1014500019437B689B680B431360FFF753FF7B685E
:101460009B781A1C7B681B88101C191C00F018F84C
:10147000BD4606B080BDC046002D310100100140C0
:101480003800014000030140FFFFFFFD1A02000089
:101490007D0A0000A02E6300FFFDFFFFFFFFF0FFAD
:1014A00080B584B000AF78603960FFF735FF274B17
:1014B0001A68FF231B0213401B0AFB60234B234ABD
:1014C000D26903218A43111C3A68120A0A43DA617D
:1014D0001E4B1E4A12681E4911403A68FF20024006
:1014E0000A431C490A431A60C046184B1A688023F5
:1014F000DB051340F9D1FA687B689A4206D8FA688E
:101500007B68101C191C00F053F805E0FA687B6832
:10151000101C191C00F022F80C4B0C4A12680E49E2
:1015200011407A6812020A430A490A431A60C04607
:10153000064B1A688023DB051340F9D1FFF7E2FE62
:10154000FFF7B6FDBD4604B080BDC04600030140B4
:1015500000FF0FC00000F03FFF000FC080B582B059
:1015600000AF7860396014E07B689B087B600D4BAE
:101570000C4A12680C4911407A6812020A430B495E
:101580000A431A60C046074B1A688023DB051340E4
:10159000F9D13B689A007B689A42E5D3BD4602B018
:1015A00080BDC04600030140FF000FC00000F03FB7
:1015B00080B582B000AF7860396019E07B68002B9D
:1015C00001D101237B607B689B007B600C4B0C4A44
:1015D00012680C4911407A6812020A430A490A4308
:1015E0001A60C046064B1A688023DB051340F9D108
:1015F0007B689A003B689A42E0D3BD4602B080BD4A
:1016000000030140FF000FC00000F03F80B582B032
:1016100000AF7860081C111CFB1C021C1A70BB1C5C
:101620000A1C1A707B685B6FFA1C12785200111C3E
:1016300003228A40D2431A407B685A677B685A6FFC
:10164000BB1C1B78F91C097849008B401A437B6846
:101650005A67BD4602B080BD80B588B000AF7860E3
:101660003960EFF310837B617B693B6172B63B6944
:10167000FB610C4B04225A630A4B7A681A62094BCD
:101680003A685A62074B9B6ABB61FB69FB60FB6867
:10169000BB60BB6883F31088BB69181CBD4608B0EB
:1016A00080BDC04600000340F0B58DB000AF78604B
:1016B0003960EFF310827A617A693A6172B63A69F9
:1016C000FA62154A00215163134A79681162124A7D
:1016D00039685162104AD26A3A6200227A620E4A2E
:1016E000926ABA610022FA61FA6AFA60FA68BA602C
:1016F000BA6882F310883A6A14000022131CBA698F
:101700001A43151CFA692243161C2B1C341C181C86
:10171000211CBD460DB0F0BD0000034080B584B073
:1017200000AF7860144B1B68002B02D1124B134A98
:101730001A60114B1B68FB607B68033303229343E1
:101740007B600D4B1A687B68D2180D4B9A4207D20A
:10175000094B1A687B68D218074B1A60FB6806E0D1
:1017600000F036FC031C0C221A6001235B42181C9B
:10177000BD4604B080BDC046BC0500200007002067
:10178000FC3F002080B500AFBD4680BDB0B582B043
:1017900000AF021C3960FB1D1A70FB1D1B787F2BEC
:1017A00027D82D4CFB1D1B785BB29B082A49FA1DDC
:1017B000127852B29208C03292005258F91D09783C
:1017C000081C03210140C900081CFF218140C943B6
:1017D00011403A689201FF200240F81D0078051C74
:1017E00003202840C00082400A43C0339B001A51A6
:1017F0002EE01A4CFB1D1B781A1C0F231340083BCC
:101800009908164AFB1D1B78181C0F230340083B40
:101810009B0806339B00D3185B68FA1D1278101CD6
:1018200003220240D200101CFF228240D2431A4001
:101830003B689B01FF200340F81D0078051C032036
:101840002840C00083401A438B1D9B00E3185A6058
:10185000BD4602B0B0BDC04600E100E000ED00E0D2
:1018600080B582B000AF78607B68013B0C4A934240
:1018700001D9012310E00B4B7A68013A5A60012329
:101880005B42181C0321FFF781FF064B00229A6080
:10189000044B07221A600023181CBD4602B080BD0D
:1018A000FFFFFF0010E000E090B587B000AF786068
:1018B0000F23FB1800221A706B497A68131CDB0097
:1018C0009B189B00CB1818331B68BB60674B1B68C9
:1018D000002B09D17A68131CDB009B189B00624A1D
:1018E0009A18624B1A60BCE0604B1B687B61BB6856
:1018F0003B61AAE07B699B691A1C3B699B1A3B61AF
:101900003B69002B77DC7B695B68002B25D07B690A
:101910005A6879680B1CDB005B189B0052495B1806
:1019200013607B69596850487A68131CDB009B1868
:101930009B00C31859604C497A68131CDB009B1844
:101940009B007A695A507A68131CDB009B189B0035
:10195000454A9A187B695A601BE0444B1868424913
:101960007A68131CDB009B189B0058503F4B1A6889
:1019700079680B1CDB005B189B003B495B185360CC
:101980007A68131CDB009B189B00374A9A18374B68
:101990001A6035497A68131CDB009B189B005B5862
:1019A0009A693B69D11830487A68131CDB009B1890
:1019B0009B00C318183319602B497A68131CDB008D
:1019C0009B189B005A58284879680B1CDB005B1851
:1019D0009B001B589869244C79680B1CDB005B1832
:1019E0009B00E31818331B68C31A93610F23FB187D
:1019F00001221A7026E03B69002B23DD7B691B68FE
:101A0000002B1FD118497A68131CDB009B189B0020
:101A1000CB187A695A607A68131CDB009B189B000C
:101A2000114A9A187B691A6039690F487A68131C41
:101A3000DB009B189B00C318183319600F23FB1899
:101A400001221A707B691B687B617B69002B08D0BF
:101A50000F23FB181B7801225340DBB2002B00D070
:101A600048E7BD4607B090BDDC050020C00500205A
:101A700080B584B000AF78607A68131CDB009B18D7
:101A80009B00284A9B18FB60FB685B68002B07D112
:101A9000FB681B68002B03D1234B00221A603DE03A
:101AA000FB685B68002B14D1FB681A681E4B1A6038
:101AB0001D4B1B6800225A601B4B1B681A4A126898
:101AC0009169FA6892698A189A61FB6800221A6023
:101AD00024E0FB681B68002B07D1FB685B680022D1
:101AE0001A60FB6800225A6018E0FB685B68FA68BD
:101AF00012681A60FB681B68FA6852685A60FB68D3
:101B00001B68FA6812689169FA6892698A189A6182
:101B1000FB6800221A60FB6800225A60BD4604B0D0
:101B200080BDC046DC050020C005002080B582B025
:101B300000AF2F4B1B687B6050E07B6820229B5CD2
:101B4000002B13D07B685B69181CFFF791FF7B6843
:101B500000225A737B685B691A1C01239340DA43A5
:101B6000244B1B681A40234B1A6034E07B681B7BB4
:101B7000002B12D17B685B7B012B2CD17B685B69CE
:101B8000181CFFF775FF7B6802225A737B689A68FE
:101B90007B681B69181C90471DE07B681B7B012B31
:101BA00018D17B685B7B012B15D17B685B69181CA6
:101BB000FFF75EFF7B68DA697B689A617B685B6927
:101BC000181CFFF771FE7B689A687B681B69181CFC
:101BD000904700E009E0064B1B687B607B68002BA8
:101BE00003D07B689B69002BA7D0BD4602B080BDA7
:101BF000C0050020C405002080B582B000AF0E4BA8
:101C00001B687B600D4B1B685A1C0C4B1A607B6871
:101C1000002B0ED07B689B69012B05D97B689B69E3
:101C20005A1E7B689A6104E07B6800229A61FFF784
:101C30007DFFBD4602B080BDC0050020C805002064
:101C400080B584B000AF78600F23FB1800221A70B3
:101C50007B681B7801225340DBB2002B1FD0134B53
:101C600000221A60124B181CFFF7FAFD021C0F230A
:101C7000FB181A700F23FB181B78012B0FD00123C0
:101C80005B42181C0321FFF781FD0A4B00221A60FA
:101C90007B6801221A700F23FB1800221A700F2391
:101CA000FB181B78181CBD4604B080BDC005002081
:101CB000003E4900C405002080B500AF034B1B68FF
:101CC000034A5343181CBD4680BDC046C8050020CA
:101CD000A086010080B582B000AF78607B6819688B
:101CE0007B681A7B7B680433081C111C1A1CFFF7E5
:101CF0004BFA7B6819687B681A7B7B685B7B081CE6
:101D0000111C1A1CFFF782FC0023181CBD4602B0F0
:101D100080BDC04680B500AF034B034A926E0121DF
:101D20008A439A66BD4680BD0000014080B584B0FC
:101D300000AF78600F23FB1800221A700E23FB18E7
:101D400000221A700D23FB1800221A700C23FB18B6
:101D500000221A700B23FB1800221A707B681B7874
:101D600001225340DBB2002B1BD00E23FA180D23A7
:101D7000FB1812781B781343DAB20C23FB181B787C
:101D80001343D9B20F23FB180B22BA1812780A4357
:101D90001A700F23FB181B78002B02D17B680122DD
:101DA0001A700F23FB181B78181CBD4604B080BDA9
:101DB00090B585B000AF3B1C054A13CA13C3126827
:101DC0001A603B1C181CFFF7B7FABD4605B090BD62
:101DD0001C22001090B583B000AFFB1D00221A70CA
:101DE000FC1D214B181CFFF7A1FF031C2370FB1DDA
:101DF0001B78002B06D1FC1D1C4B181CFFF76AFF3B
:101E0000031C2370FB1D1B78002B06D1FC1D184BF7
:101E1000181CFFF75FFF031C2370FB1D1B78002BB2
:101E200006D1FC1D134B181CFFF754FF031C237035
:101E3000FB1D1B78002B06D1FC1D0F4B181CFFF758
:101E400049FF031C2370FB1D1B78002B06D1FC1DD2
:101E50000A4B181CFFF7F4FE031C2370FB1D1B78B4
:101E6000181CBD4603B090BDD0050020DC21001039
:101E7000EC210010FC2100100C220010CC050020E9
:101E800080B582B000AF78600A1CFB1C1A70FB1C86
:101E90001B7801229A407B685A60BD4602B080BD23
:101EA00080B582B000AF78600A1CFB1C1A70FB1C66
:101EB0001B78802252029A407B685A60BD4602B06D
:101EC00080BDC04680B582B000AF78607B681A687C
:101ED0007B681B7B101C191CFFF7D2FFBD4602B0AC
:101EE00080BDC04680B582B000AF78607B681A685C
:101EF0007B681B7B101C191CFFF7D2FFBD4602B08C
:101F000080BDC04680B584B000AF7860FFF7D4FED6
:101F1000031CFB60C046FFF7CFFE021CFB68D21A11
:101F20007B689A42F7D3BD4604B080BD80B582B0CD
:101F300000AFFFF74FFF00F077F8031C181C0621D5
:101F4000FFF7B2FB0B1CDAB2FB1D01321A701B4B00
:101F5000181CFFF7B7FF1A4B181CFFF7B3FF194BFC
:101F6000181CFFF7AFFF184B181CFFF7ABFFFB1D4A
:101F70001B78022B0DD002DC012B05D018E0032BBF
:101F80000CD0042B0FD013E00C4B181CFFF7AAFF4A
:101F90000EE00B4B181CFFF7A5FF09E0094B181CBE
:101FA000FFF7A0FF04E0084B181CFFF79BFFC0469B
:101FB000064B181CFFF7A6FFBDE7C046DC2100104A
:101FC000EC210010FC2100100C22001040420F00F8
:101FD000014B18687047C046B00500200E4B70B525
:101FE00000251E1C0D4CE41AA410A54204D0AB0021
:101FF000F35898470135F8E7FFF7C4FB084B002575
:102000001E1C084CE41AA410A54204D0AB00F358DF
:1020100098470135F8E770BDB4050020B4050020ED
:10202000B4050020B4050020154B10B51C68A36B47
:10203000002B15D1182000F033F8124BA063038059
:10204000114B01224380114B8380114BC380114BF4
:1020500003810523438106338381002302614361A9
:10206000A46B0D4A206961690C4B00F08DF80122C8
:10207000002380185941206161614800400810BD6B
:10208000B00500200E330000CDABFFFF341200007E
:102090006DE6FFFFECDEFFFF2D7F954C2DF45158D0
:1020A00008B5034B011C186800F004F808BDC046D1
:1020B000B0050020032370B5CC1C9C430834051CDC
:1020C0000C2C01D20C2405E0002C03DA0C23002098
:1020D0002B6042E08C42F9D3204A1368101C191C73
:1020E000002913D00A68121B0DD40B2A02D90A60EA
:1020F0008B181FE08B4202D15A6802601BE04A68CD
:102100005A600B1C17E00B1C4968E9E7144E336852
:10211000002B03D1281C00F025F83060281C211C5E
:1021200000F020F8031C421CD0D00322C61C9643AA
:1021300086420AD11C60181C07210B301A1D8843E7
:10214000821A0AD05142995007E0311A281C00F037
:1021500009F8431CBAD0331CECE770BDD805002049
:10216000D405002038B50023064C051C081C23604C
:10217000FFF7D4FA431C03D12368002B00D02B6057
:1021800038BDC046FC060020F0B54F464646050463
:102190002D0C2C1CC0B41704160C3F0C9946030CD4
:1021A0007C4375435F4373437D19260CAD199C46F0
:1021B000AF4203D980235B029846C4444B46514347
:1021C000434324042E0C240C2D0466442C19591866
:1021D0008919201C0CBC90469946F0BD00040440AF
:1021E0008000000001000000000000000004044026
:1021F0008000000000000100010000000004044015
:102200008000000001000000020000000004044003
:102210008000000001000000030000000000010039
:102220000000300300000100000000004300000037
:102230002C480047000000000000000000000000E3
:10224000000000000000000000000000000000008E
:102250002548004700000000000000002348004718
:1022600023480047234800472348004723480047A6
:102270002348004723480047234800472348004796
:102280002348004723480047234800472348004786
:102290002348004723480047234800472348004776
:1022A0002348004723480047234800472348004766
:1022B0002348004723480047234800472348004756
:1022C0002348004723480047234800472348004746
:1022D0002348004723480047234800472348004736
:1022E000234800479D1000109D1000109D10001005
:1022F000F91B00109D1000109D1000109D10001083
:102300009D1000109D1000109D1000109D100010D9
:102310009D1000109D1000109D1000109D100010C9
:102320009D1000109D1000109D1000109D100010B9
:102330009D1000109D1000109D1000109D100010A9
:102340009D1000109D1000109D1000109D10001099
:102350009D1000109D1000109D1000109D10001089
:102360009D1000109D1000109D1000109D10001079
:042370009D100010AC
:102374000000000000000000000000000000000059
:102384000000000000000000000000000000000049
:102394002C220010000000000000000000000000DB
:1023A4000000000000000000000000000000000029
:1023B4000000000000000000000000000000000019
:1023C4000000000000000000000000000000000009
:0423D4005005002090
:040000051000101DBA
:00000001FF
